{
  "contractName": "Notary",
  "abi": [
    {
      "anonymous": false,
      "inputs": [
        {
          "indexed": true,
          "internalType": "address",
          "name": "owner",
          "type": "address"
        },
        {
          "indexed": true,
          "internalType": "bytes32",
          "name": "fileHash",
          "type": "bytes32"
        },
        {
          "indexed": false,
          "internalType": "uint256",
          "name": "timestamp",
          "type": "uint256"
        }
      ],
      "name": "FileNotarized",
      "type": "event"
    },
    {
      "inputs": [
        {
          "internalType": "bytes32",
          "name": "",
          "type": "bytes32"
        }
      ],
      "name": "proofs",
      "outputs": [
        {
          "internalType": "address",
          "name": "owner",
          "type": "address"
        },
        {
          "internalType": "uint256",
          "name": "timestamp",
          "type": "uint256"
        }
      ],
      "stateMutability": "view",
      "type": "function",
      "constant": true
    },
    {
      "inputs": [
        {
          "internalType": "bytes32",
          "name": "_fileHash",
          "type": "bytes32"
        }
      ],
      "name": "notarize",
      "outputs": [],
      "stateMutability": "nonpayable",
      "type": "function"
    },
    {
      "inputs": [
        {
          "internalType": "bytes32",
          "name": "_fileHash",
          "type": "bytes32"
        }
      ],
      "name": "verify",
      "outputs": [
        {
          "internalType": "address",
          "name": "owner",
          "type": "address"
        },
        {
          "internalType": "uint256",
          "name": "timestamp",
          "type": "uint256"
        }
      ],
      "stateMutability": "view",
      "type": "function",
      "constant": true
    }
  ],
  "bytecode": "0x608060405234801561000f575f80fd5b506104508061001d5f395ff3fe608060405234801561000f575f80fd5b506004361061003f575f3560e01c8063444d95b01461004357806375e3661614610074578063cbef362f146100a5575b5f80fd5b61005d600480360381019061005891906102ba565b6100c1565b60405161006b92919061033c565b60405180910390f35b61008e600480360381019061008991906102ba565b6100ff565b60405161009c92919061033c565b60405180910390f35b6100bf60048036038101906100ba91906102ba565b610150565b005b5f602052805f5260405f205f91509050805f015f9054906101000a900473ffffffffffffffffffffffffffffffffffffffff16908060010154905082565b5f805f808481526020019081526020015f205f015f9054906101000a900473ffffffffffffffffffffffffffffffffffffffff165f808581526020019081526020015f206001015491509150915091565b5f805f8381526020019081526020015f2060010154146101a5576040517f08c379a000000000000000000000000000000000000000000000000000000000815260040161019c906103e3565b60405180910390fd5b60405180604001604052803373ffffffffffffffffffffffffffffffffffffffff168152602001428152505f808381526020019081526020015f205f820151815f015f6101000a81548173ffffffffffffffffffffffffffffffffffffffff021916908373ffffffffffffffffffffffffffffffffffffffff16021790555060208201518160010155905050803373ffffffffffffffffffffffffffffffffffffffff167f812b720080024e3f19858930d0320d7f5c66dc2a13123355791ab76a230067cd426040516102789190610401565b60405180910390a350565b5f80fd5b5f819050919050565b61029981610287565b81146102a3575f80fd5b50565b5f813590506102b481610290565b92915050565b5f602082840312156102cf576102ce610283565b5b5f6102dc848285016102a6565b91505092915050565b5f73ffffffffffffffffffffffffffffffffffffffff82169050919050565b5f61030e826102e5565b9050919050565b61031e81610304565b82525050565b5f819050919050565b61033681610324565b82525050565b5f60408201905061034f5f830185610315565b61035c602083018461032d565b9392505050565b5f82825260208201905092915050565b7f546869732066696c6520686173682068617320616c7265616479206265656e205f8201527f6e6f746172697a65642e00000000000000000000000000000000000000000000602082015250565b5f6103cd602a83610363565b91506103d882610373565b604082019050919050565b5f6020820190508181035f8301526103fa816103c1565b9050919050565b5f6020820190506104145f83018461032d565b9291505056fea26469706673582212208a721c68847683ba8c75eae9a1b0626025261d5f3aa5aaa6738c33bfe65088dc64736f6c63430008140033",
  "immutableReferences": {},
  "source": "// SPDX-License-Identifier: MIT\r\npragma solidity ^0.8.20;\r\n\r\n/**\r\n * @title Notary (aka \"ChainStamp\")\r\n * @dev This contract allows users to notarize files by storing their\r\n * SHA-256 hash on the blockchain. This creates an immutable,\r\n * timestamped proof of existence.\r\n */\r\ncontract Notary {\r\n\r\n    // --- Data Structures ---\r\n    \r\n    struct Proof {\r\n        address owner;      // The wallet address of the file's owner.\r\n        uint256 timestamp;  // The block timestamp (in seconds) when it was notarized.\r\n    }\r\n    \r\n    // This is the \"database\" of our DApp.\r\n    // It's a \"mapping\" (like a dictionary) that links a\r\n    // file hash (bytes32) to its Proof struct.\r\n    mapping(bytes32 => Proof) public proofs;\r\n\r\n    // --- Event ---\r\n    \r\n    // This event broadcasts to the world when a file is successfully notarized.\r\n    event FileNotarized(\r\n        address indexed owner,\r\n        bytes32 indexed fileHash,\r\n        uint256 timestamp\r\n    );\r\n\r\n    // --- Functions ---\r\n\r\n    /**\r\n     * @dev Notarizes a file by storing its SHA-256 hash.\r\n     * @param _fileHash The SHA-256 hash of the file to be notarized.\r\n     */\r\n    function notarize(bytes32 _fileHash) public {\r\n        // Check if the file has already been notarized\r\n        require(\r\n            proofs[_fileHash].timestamp == 0,\r\n            \"This file hash has already been notarized.\"\r\n        );\r\n\r\n        // Store the proof\r\n        proofs[_fileHash] = Proof(msg.sender, block.timestamp);\r\n\r\n        // Emit the event\r\n        emit FileNotarized(msg.sender, _fileHash, block.timestamp);\r\n    }\r\n\r\n    /**\r\n     * @dev Verifies a file hash and returns its proof details.\r\n     * @param _fileHash The SHA-256 hash of the file to verify.\r\n     */\r\n    function verify(bytes32 _fileHash)\r\n        public\r\n        view\r\n        returns (address owner, uint256 timestamp)\r\n    {\r\n        return (proofs[_fileHash].owner, proofs[_fileHash].timestamp);\r\n    }\r\n}",
  "sourcePath": "C:\\Users\\USER\\Desktop\\chainstamp project\\contracts\\Notary.sol",
  "compiler": {
    "name": "solc",
    "version": "0.8.20+commit.a1b79de6.Emscripten.clang"
  },
  "schemaVersion": "3.4.16",
  "updatedAt": "2025-11-25T10:02:22.903Z",
  "networkType": "ethereum",
  "devdoc": {
    "details": "This contract allows users to notarize files by storing their SHA-256 hash on the blockchain. This creates an immutable, timestamped proof of existence.",
    "kind": "dev",
    "methods": {
      "notarize(bytes32)": {
        "details": "Notarizes a file by storing its SHA-256 hash.",
        "params": {
          "_fileHash": "The SHA-256 hash of the file to be notarized."
        }
      },
      "verify(bytes32)": {
        "details": "Verifies a file hash and returns its proof details.",
        "params": {
          "_fileHash": "The SHA-256 hash of the file to verify."
        }
      }
    },
    "title": "Notary (aka \"ChainStamp\")",
    "version": 1
  },
  "userdoc": {
    "kind": "user",
    "methods": {},
    "version": 1
  }
}